:03000000020B9F51
:0C0B9F00787FE4F6D8FD758133020BE688
:100DD100536A615F313030305F496E697428292070
:100DE1006661696C75726500536A615F31303030DC
:100DF1005F496E697428292073756365737300C038
:0F0E0100F9A4B0999282F880908883C6A1868E5A
:030EFE00012302CB
:100EBF00E4FEEEC39F5009E4FD0DBD21FC0E80F250
:010ECF002200
:080EDE007F147EF8DEFEDFFA4E
:010EE60022E9
:080EE700EF900E0093F590223C
:070EF700D2B8D2A8C2882284
:0E0ED000759850438920758DFDD28ED2AF22C9
:080EEF008F993099FDC2992290
:100EAC001208F6FF600C120EEF740129F9E43AFAFD
:030EBC0080EE22A3
:100E96007521FE75221F852282852183EFF0E06F82
:060EA6006002D322C3220A
:100B1000A9077521FE752210852282852183E9F0BF
:100B20007521FE752211852282852183EDF07521C4
:100B3000FE752212852282852183EBF07521FE75D8
:100B40002213852282852183E517F0E06517700264
:100B5000E5166002D3227521FE7522148522828556
:100B60002183E519F07521FE7522158522828521E4
:100B700083E51BF07521FE7522168522828521836F
:100B8000E51DF07521FE752217852282852183E5FA
:0F0B90001FF0E0651F7002E51E6002D322C32232
:10093500EF12090F09610A099A20096628096E3222
:10094500097350097864097D7D098A900982C8096F
:10095500A2E80992F40992FA000009AA7511EF803C
:10096500037511877512FF803E75110E8022751172
:1009750049800D7511048018751103801375114395
:1009850075121B80227511807512FA801A75110176
:1009950075121C8012E4F511751216800AE4F51122
:1009A5007512148002D3227521FE752206852282D6
:1009B500852183E511F0E065116002D3227521FEE2
:1009C500752207852282852183E512F0E065126094
:0409D50002D322C364
:0109D90022FB
:100E66007521FE752200852282852183E0F533EF08
:080E7600F0E0B50702C322D32E
:010E7E002251
:100E7F007521FE75220985228285218374AAF0E0EF
:070E8F00B4AA02C322D32222
:100E4C007521FE752200852282852183E0F51174BF
:090E5C0001F0E030E002C322D3F2
:010E6500226A
:100D10007521FE752201852282852183EFF024FE54
:100D2000601224FE602224FC603224F86004240F48
:100D3000703EC3227521FE752202852282852183A1
:100D4000E020E502C322D3227521FE75220285220E
:100D500082852183E030E002D322C3227521FE7513
:100D60002202852282852183E020E102C322D32250
:020D7000D3228C
:100E10007521FE752202852282852183E0FF20E371
:100E2000037F0122EF20E2037F0222EF30E4037F01
:100E300003227521FE752210A822AC217D017E00BF
:0B0E40007F041208D07F01120D101F6C
:010E4B002284
:060C9F008B2E8A2F893024
:100CA5007521FE752202852282852183E0FF30E2CF
:100CB500EF7521FE752210ED04852282852183F0D2
:100CC5007521FE752211852282852183E523F07524
:100CD50021FE7522128522828521837401F07521FA
:100CE500FE752213852282852183E532F07521FE6A
:100CF500752214AF057E00A822AC217D01AB2EAA7A
:0B0D05002FA9301208D07F01020D1052
:100D72007521FE752202852282852183E0FE30E202
:100D8200EF7521FE7522108522828521837402F07F
:100D92007521FE752211852282852183E523F07556
:100DA20021FE7522128522828521837401F075212C
:100DB200FE752213852282852183EDF07521FE7551
:0F0DC2002214852282852183EFF07F01020D101C
:100A7B00C2AF120E4C92003000037F0122120E7F88
:100A8B0092003000037F02227FC8120E9692003034
:100A9B0000037F0322751600751703E4F518F5198B
:100AAB00F51AF51BF51CF51DF51EF51F7B01FA7DDF
:100ABB0002FC7F01120B1092003000037F04227F97
:100ACB007D12093592003000037F05227521FE75DA
:100ADB002208852282852183741AF07521FE7522E6
:100AEB0004852282852183741DF07521FE752200F9
:100AFB00852282852183E054FEF0E060037F06228D
:040B0B00D2AF7F00E6
:010B0F0022C3
:03000300020C2BC1
:0D0C2B00C0E0C0F0C083C082C0D075D0080A
:100C3800E4FF7521FE752203852282852183E03039
:100C4800E04A7521FE752210852282852183E0FD08
:100C5800540FFEED20E6307521FE752213852282A1
:100C68008521837521FE752214AF0EEF24FFFFE462
:100C780034FFFEAA21A9227B0178247C007D001282
:0C0C880008D0AF24120EE77F04120D10FC
:0B0C9400D0D0D082D083D0F0D0E0326E
:1009DA00E4F510C2B5C2AF120EF7120ED0120A7B9E
:1009EA00AE07EE7BFF60097A0D79D1120EAC800951
:1009FA007A0D79E9120EACD2AFAF06120EE7E5A076
:100A0A0064F8604C7FF4120EBFAFA0EF2441603946
:100A1A0024E0602F24F0602524F8601B24FC601178
:100A2A0024FE60081470297523028024752303802C
:100A3A001F7D817F0180167D827F0280107D837FEA
:100A4A0003800A7D847F0480047D857F05120D72F0
:100A5A007521FE752202852282852183E0FC7F644E
:100A6A00120EBFEC30E697120A7B7FEE120EEF8071
:010A7A008DEE
:100BAB000209DAE493A3F8E493A34003F68001F27D
:100BBB0008DFF48029E493A3F85407240CC8C3334B
:100BCB00C4540F4420C8834004F456800146F6DF1A
:100BDB00E4800B0102040810204080900EFEE47E9E
:100BEB00019360BCA3FF543F30E509541FFEE4930F
:100BFB00A360010ECF54C025E060A840B8E493A3D6
:100C0B00FAE493A3F8E493A3C8C582C8CAC583CA00
:100C1B00F0A3C8C582C8CAC583CADFE9DEE780BEB8
:010F010000EF
:10080000E709F608DFFA8046E709F208DFFA803EDA
:1008100088828C83E709F0A3DFFA8032E309F608C7
:10082000DFFA8078E309F208DFFA807088828C832F
:10083000E309F0A3DFFA806489828A83E0A3F608E3
:10084000DFFA805889828A83E0A3F208DFFA804CBD
:1008500080D280FA80C680D4806980F28033801094
:1008600080A680EA809A80A880DA80E280CA8033FD
:1008700089828A83ECFAE493A3C8C582C8CCC58375
:10088000CCF0A3C8C582C8CCC583CCDFE9DEE78045
:100890000D89828A83E493A3F608DFF9ECFAA9F0C4
:1008A000EDFB2289828A83ECFAE0A3C8C582C8CC1A
:1008B000C583CCF0A3C8C582C8CCC583CCDFEADE33
:1008C000E880DB89828A83E493A3F208DFF980CC95
:1008D00088F0EF60010E4E60C388F0ED2402B4048E
:1008E0000050B9F582EB2402B4040050AF23234535
:0608F00082239008507302
:1008F600BB010689828A83E0225002E722BBFE0200
:09090600E32289828A83E4932232
:10090F00D083D082F8E4937012740193700DA3A377
:10091F0093F8740193F5828883E47374029368608B
:06092F00EFA3A3A380DF8B
:00000001FF
