:03000000020E19D4
:0C0E1900787FE4F6D8FD758136020D5597
:100CA800536A615F313030305F496E69742829209A
:100CB8006661696C75726500536A615F3130303006
:100CC8005F496E697428292073756365737300C062
:0F0CD800F9A4B0999282F880908883C6A1868E85
:100DFA00E4FEEEC39F5009E4FD0DBD21FC0E80F216
:010E0A0022C5
:080E25007F147EF8DEFEDFFA07
:010E2D0022A2
:080E2E00EF900CD793F5902220
:070E3E00D2B8D2A8C288223D
:0E0E0B00759850438920758DFDD28ED2AF228E
:080E36008F993099FDC2992249
:100DE7001208F6FF600C120E36740129F9E43AFA7C
:030DF70080EE2269
:100DD1007510FE75111F851182851083EFF0E06F8C
:060DE1006002D322C322D0
:100A6F00A9077510FE751110851182851083E9F0A5
:100A7F007510FE751111851182851083EDF07510BB
:100A8F00FE751112851182851083EBF07510FE75BE
:100A9F001113851182851083E528F0E06528700217
:100AAF00E5276002D3227510FE751114851182851A
:100ABF001083E52AF07510FE7511158511828510CA
:100ACF0083E52CF07510FE75111685118285108344
:100ADF00E52EF07510FE751117851182851083E5CF
:0F0AEF0030F0E065307002E52F6002D322C322A1
:10093500EF12090F09610A099A20096628096E3222
:10094500097350097864097D7D098A900982C8096F
:10095500A2E80992F40992FA000009AA7522EF802B
:10096500037522877523FF803E75220E802275222E
:1009750049800D7522048018752203801375224362
:1009850075231B80227522807523FA801A75220132
:1009950075231C8012E4F522752316800AE4F522DE
:1009A5007523148002D3227510FE751106851182F8
:1009B500851083E522F0E065226002D3227510FEE2
:1009C500751107851182851083E523F0E0652360A5
:0409D50002D322C364
:0109D90022FB
:100DA1007510FE751100851182851083E0F51CEF29
:080DB100F0E0B50702C322D3F4
:010DB9002217
:100DBA007510FE75110985118285108374AAF0E0F9
:070DCA00B4AA02C322D322E8
:100D87007510FE751100851182851083E0F52274B8
:090D970001F0E030E002C322D3B8
:010DA0002230
:100BE9007510FE751101851182851083EFF024FEC1
:100BF900601224FE602224FC603224F86004240F71
:100C0900703EC3227510FE7511028511828510830D
:100C1900E020E502C322D3227510FE751102851169
:100C290082851083E030E002D322C3227510FE755D
:100C39001102851182851083E020E102C322D322AB
:020C4900D322B4
:100CE7007510FE751102851182851083E0FF20E3E0
:100CF700037F0122EF20E2037F0222EF30E4037F2C
:100D070003227510FE751110A811AC107D017E002D
:0B0D17007F041208D07F01120BE91FBF
:010D220022AE
:060B79008B328A3389343F
:100B7F007510FE751102851182851083E0FF30E23A
:100B8F00EF7510FE751110ED04851182851083F03D
:100B9F007510FE7511118511828510837401F07522
:100BAF0010FE75111285118285108304F07510FEE9
:100BBF00751113851182851083E536F07510FE755A
:100BCF001114AF057E00A811AC107D01AB32AA3312
:0A0BDF00A9341208D07F01020BE9CF
:100C4B007510FE751102851182851083E0FE30E26E
:100C5B00EF7510FE7511108511828510837402F0EB
:100C6B007510FE75111185118285108314F07510A6
:100C7B00FE75111285118285108304F07510FE75B7
:100C8B001113851182851083EDF07510FE7511140B
:0D0C9B00851182851083EFF07F01020BE9C7
:1009DA00C2AF120D8792003000037F0122120DBAB6
:1009EA0092003000037F02227FC8120DD19200309C
:1009FA0000037F0322752700752801E4F529F52AEB
:100A0A00F52BF52CF52DF52EF52FF5307B02FA7D19
:100A1A0001FC7F02120A6F92003000037F04227FDA
:100A2A007D12093592003000037F05227510FE758C
:100A3A001108851182851083741AF07510FE7511DC
:100A4A0004851182851083741DF07510FE751100DE
:100A5A00851182851083E054FEF0E060037F062250
:040A6A00D2AF7F0088
:010A6E002265
:100D2300EF247E601314601614601914601C2404ED
:100D3300701F7D017F0A80167D027F0B80107D036B
:100D43007F0C800A7D047F0D80047D057F0E120CCD
:020D53004B2231
:03000300020AFEF0
:0D0AFE00C0E0C0F0C083C082C0D075D00839
:100B0B007531007510FE751103851182851083E018
:100B1B0030E0507510FE751110851182851083E041
:100B2B00FE540FFFEE20E6367510FE75111385117E
:100B3B0082851083E0F5317510FE751114EF24FFDB
:100B4B00FFE434FFFEAA10A9117B0178127C007D13
:100B5B00001208D0AF12120E2EAF31120D237F04EC
:030B6B00120BE981
:0B0B6E00D0D0D082D083D0F0D0E03295
:100D5500E4F521C2B5C2AF120E3E120E0B1209DA2E
:100D6500AE07EE7BFF600B7A0C79A8120DE7AF0694
:100D7500800B7A0C79C0120DE7D2AF7F0A120E2EC6
:020D850080FEEE
:10080000E709F608DFFA8046E709F208DFFA803EDA
:1008100088828C83E709F0A3DFFA8032E309F608C7
:10082000DFFA8078E309F208DFFA807088828C832F
:10083000E309F0A3DFFA806489828A83E0A3F608E3
:10084000DFFA805889828A83E0A3F208DFFA804CBD
:1008500080D280FA80C680D4806980F28033801094
:1008600080A680EA809A80A880DA80E280CA8033FD
:1008700089828A83ECFAE493A3C8C582C8CCC58375
:10088000CCF0A3C8C582C8CCC583CCDFE9DEE78045
:100890000D89828A83E493A3F608DFF9ECFAA9F0C4
:1008A000EDFB2289828A83ECFAE0A3C8C582C8CC1A
:1008B000C583CCF0A3C8C582C8CCC583CCDFEADE33
:1008C000E880DB89828A83E493A3F208DFF980CC95
:1008D00088F0EF60010E4E60C388F0ED2402B4048E
:1008E0000050B9F582EB2402B4040050AF23234535
:0608F00082239008507302
:1008F600BB010689828A83E0225002E722BBFE0200
:09090600E32289828A83E4932232
:10090F00D083D082F8E4937012740193700DA3A377
:10091F0093F8740193F5828883E47374029368608B
:06092F00EFA3A3A380DF8B
:00000001FF
